:100000000C9494000C94BC000C94BC000C944D1106
:100010000C944D110C944D110C94BC000C94BC002C
:100020000C94BC000C94BC000C94BC000C94BC0060
:100030000C94BC000C94BC000C94BC000C94BC0050
:100040000C94C1160C94BC000C94DE0E0C94B80EEB
:100050000C94BC000C94BC000C94BC000C94BC0030
:100060000C94100F0C94BC00DF1BF11BF41BFB1B4A
:10007000021C301C371C441C511C5D1C5D1C5D1C8B
:100080005D1C5D1C5D1C5D1C5D1C5D1C5D1C5D1CA8
:100090005D1C5D1C5D1C5D1C5D1C5D1C5D1C5D1C98
:1000A0005D1C5D1C5D1C5D1CDF1BEC1BF11BF41B50
:1000B000FB1B021C091C161C231C7C3C3E5E2B3DBA
:1000C0003F2F5B5D3B2C2A225C00000000002400D7
:1000D00027002A00000000080002010000030407B6
:1000E00000000000000000000000000023002600C7
:1000F000290000000000250028002B00040404044F
:1001000004040404020202020202030303030303C1
:10011000010204081020408001020408102001029E
:10012000040810201B21FF2011241FBECFEFD8E0B0
:10013000DEBFCDBF12E0A0E0B1E0ECE6FEE402C01D
:1001400005900D92A638B107D9F727E0A6E8B2E0EE
:1001500001C01D92AD38B207E1F710E0C3E9D0E06D
:1001600004C02197FE010E945F23C239D107C9F75D
:100170000E940B170C9429270C940000DC0159965F
:10018000ED91FC915A973097B9F083899489A589AC
:10019000B6894285538564857585841B950BA60BAE
:1001A000B70B811520E89207A105B10538F08FEF54
:1001B0009FE7A0E0B0E0089580E090E00895CF933D
:1001C000DF931F92CDB7DEB76983DC01ED91FC911F
:1001D0000280F381E02D41E050E0BE016F5F7F4F70
:1001E00009950F90DF91CF910895089580E090E0F8
:1001F0000895CF93DF93EC018D81882379F18C8171
:1002000087FF28C06E857F858889998941E00E9493
:100210000212882319F1EA8980E2E89FF001112493
:10022000E455FC4F3097D1F08D81823040F48B89BA
:100230009C89AD89BE89848F958FA68FB78F8F8952
:10024000988DA98DBA8D938F828FB58BA48B8C815D
:100250008F778C83DF91CF910C94C71180E0DF9171
:10026000CF910895FC01818D928D009711F00C942F
:10027000F90008953F924F925F926F927F928F9212
:100280009F92AF92BF92CF92DF92EF92FF920F9325
:100290001F93CF93DF93CDB7DEB72C970FB6F894AB
:1002A000DEBF0FBECDBF5C01DC015B968D909C90E4
:1002B0005C971696CD90DD90ED90FC901997C11447
:1002C000D104E104F10439F0BFEFCB1ADB0AEB0AE9
:1002D000FB0A312C07C0F401C080D180E280F3809A
:1002E00033243394F40181859285A385B4859C01E0
:1002F000AD012F5F3F4F4F4F5F4F29873A874B87A5
:100300005C87260137011D821E821F821886F40138
:1003100081859285A385B4852D813E814F81588545
:10032000281739074A075B0708F063C089859A8553
:10033000AB85BC858C159D05AE05BF0550F482E0EC
:10034000C82ED12CE12CF12C92E0492E512C612C9D
:10035000712C9E012F5F3F4FB701A601C4010E947F
:10036000EC12882309F445C089819A81AB81BC8154
:10037000892B8A2B8B2B41F0260137019FEF491ADD
:10038000590A690A790A05C0C414D504E604F704B9
:1003900091F02D813E814F8158852F5F3F4F4F4F08
:1003A0005F4F2D833E834F8358873FEFC31AD30A95
:1003B000E30AF30AACCF0FEF1FEF2FEF3FE0B301DB
:1003C000A201C4010E944B12882399F0D501169610
:1003D0004D915D916D917C91199741155105610584
:1003E000710549F093018201C4010E944B128111F1
:1003F00002C080E02AC0D50116964D925D926D92A2
:100400007C921997332051F0D301C2010196A11DAE
:10041000B11DF40180839183A283B383F5018789A1
:10042000908DA18DB28D892B8A2B8B2B69F4D501F0
:1004300057964D925D926D927C925A9714968C913C
:100440001497806814968C9381E02C960FB6F894DC
:10045000DEBF0FBECDBFDF91CF911F910F91FF90F7
:10046000EF90DF90CF90BF90AF909F908F907F9054
:100470006F905F904F903F9008958F929F92AF92B0
:10048000BF92CF92DF92EF92FF920F931F93CF9381
:10049000DF93EC018D81811102C080E078C00B896F
:1004A0001C892D893E890417150726073707A8F3ED
:1004B0006A017B01823029F4CA86DB86EC86FD86E0
:1004C0000DC0C114D104E104F10451F41E821F8255
:1004D000188619861A861B861C861D8681E057C0E1
:1004E0008A849B84AC84BD84EB8DFC8D258530E0B3
:1004F000275F3F4FB501A4014150510961097109BE
:10050000022E04C076956795579547950A94D2F7C1
:10051000D701C6010197A109B10904C0B695A795F5
:10052000979587952A95D2F784179507A607B70759
:1005300020F089288A288B2871F44F89588D698D7D
:100540007A8D4E835F83688779874C015D018E01C8
:100550000A5F1F4F16C0841B950BA60BB70BF5CF78
:100560004E815F816885798598018B8D9C8D0E9475
:10057000EC1291E0891A9108A108B108882309F4C6
:100580008CCF81149104A104B10451F795CFDF9170
:10059000CF911F910F91FF90EF90DF90CF90BF9080
:1005A000AF909F908F9008958F929F92AF92BF923D
:1005B000CF92DF92EF92FF920F931F93CF93DF932F
:1005C00000D000D0CDB7DEB77C0180E2689FF0019B
:1005D0001124E455FC4F9385917121F0842F82748E
:1005E00009F08FC0142FD70152966C935297409107
:1005F00000015091010160910201709103011E966A
:100600004D935D936D937C9351974489558960E038
:1006100070E0BA0155274427828D938DA0E0B0E0A9
:10062000482B592B6A2B7B2BD70157964D935D9303
:100630006D937C935A978385887159F4848D958D39
:10064000A68DB78DF701838B948BA58BB68B81E03C
:1006500012C0803109F055C097012D5E3F4FD70180
:100660005B968D919C915C970E94C913882309F435
:1006700048C084E0F7018583812F8F70D7011496DD
:100680008C931497F70116821782108611861A969A
:100690001D921D921D921C921D9716FF34C0159637
:1006A0008C91813071F511FF2CC0F7014389548979
:1006B00065897689452B462B472B09F461C040E0BC
:1006C00050E0BA01C7010E943D028823D1F0F70132
:1006D0008788908CA18CB28CC38CD48C82E090E003
:1006E000A0E0B0E0F60180839183A283B3839E01F2
:1006F0002F5F3F4FB501A401C6010E94EC1281118A
:1007000004C080E03DC081E03BC000E010E0980103
:10071000B501A401C6010E944B12882391F3898080
:100720009A80AB80BC80D60157968C91803129F09D
:1007300088EF9FEFAFEFBFE004C088EF9FEFA0E02E
:10074000B0E088169906AA06BB0688F2D70157962C
:100750001D921D921D921C925A97F701138A148ABA
:10076000158A168A848180688483C7010E94F900F3
:10077000882339F240E050E0BA01C7010E943D02EF
:100780000F900F900F900F90DF91CF911F910F91CD
:10079000FF90EF90DF90CF90BF90AF909F908F90A1
:1007A0000895CF93DF93EC010E94F900882311F0A4
:1007B0001D8281E0DF91CF91089561E0FC01848189
:1007C0000C94F215809197028F3F39F48EBD000092
:1007D0000DB407FEFDCF8EB50895F894E091920216
:1007E000F0919302908180919102892B808328E07F
:1007F00080E0E0919502F091960230819091940210
:10080000392B3083880FA0918F02B09190024C91C8
:1008100030918E02342309F08160308190959323CA
:10082000908300000000215021F7789408950F93E1
:100830001F93CF93DF93EB010E94B5168B010E94AB
:10084000E2038F3F49F00E94B516601B710B6C17D5
:100850007D07A8F380E001C081E0DF91CF911F9177
:100860000F910895CF93DF93EC018E81882389F057
:100870008F8198859C012F5F3F4F38872F8382306F
:10088000924018F40E94E203F3CFCE010E94DD03F0
:100890001E82DF91CF910895909197029F3F39F486
:1008A0008EBD00000DB407FEFDCF8EB50895F894FF
:1008B00028E0E0919502F0919602308140919402F7
:1008C000942F909539233083A0919202B091930296
:1008D000909191023C9187FF02C0932B02C09095AA
:1008E00093239C939081942B9083880F215009F738
:1008F0000000000000000000E0919502F0919602D7
:1009000090818091940280958923808378940895C2
:100910008F929F92AF92BF92FF920F931F93CF93AC
:10092000DF93EC01F62E49015A010E94320460E087
:100930008C810E94F2156CE271E0CE010E941704D6
:100940008F2D80640E944C0408E110E0D501C401A1
:10095000002E04C0B695A795979587950A94D2F76F
:100960000E944C0408501109083F8FEF180771F7D7
:10097000FF2029F088E0F81204C087E803C085E969
:1009800001C08FEF0E944C0410E00E94E2038A87AE
:1009900087FF04C01F3F11F01F5FF7CFDF91CF919A
:1009A0001F910F91FF90BF90AF909F908F900895EF
:1009B000AF92BF92CF92DF92EF92FF920F931F936D
:1009C000CF93DF93EC016901C801820F931F81303F
:1009D000924008F070C08E81882371F088819981DF
:1009E000AA81BB8184179507A607B70729F48F81D1
:1009F0009885C816D906B0F5488359836A837B83E6
:100A00008B85833039F089E0440F551F661F771FAF
:100A10008A95D1F79A01AB0161E1CE010E94880469
:100A2000882319F083E08D8346C00E94B5165B01D0
:100A30000E94E2038A878F3F49F40E94B5166A1923
:100A40007B096D327140A0F38FE003C08E3F31F01F
:100A50008DE08D83CE010E94DD032DC018861F829C
:100A600081E08E838F8198858C159D0540F40E94CE
:100A7000E2038F819885019698878F83F3CF670172
:100A8000E00EF11EEC14FD0431F00E94E203F601C9
:100A900081936F01F7CF8F819885080F191F1887F1
:100AA0000F838985882319F00115124048F0CE0183
:100AB0000E94320405C0CE010E94DD0380E001C027
:100AC00081E0DF91CF911F910F91FF90EF90DF9028
:100AD000CF90BF90AF9008954F925F926F927F92A8
:100AE000AF92BF92CF92DF92EF92FF920F931F933C
:100AF000CF93DF931F92CDB7DEB7FC012581222370
:100B000009F4C1C0848180FFBEC083899489A5890E
:100B1000B689428453846484758484159505A6053A
:100B2000B70509F4B0C06F015201F1E0BF22D60150
:100B30005B968D919C915C97B301A20139E076950B
:100B40006795579547953A95D1F7223071F4FC0196
:100B5000828D938DA48DB58D8A019B01080F191F7D
:100B60002A1F3B1FC901B8014AC0DC0114961C9121
:100B700011501423A114B104F9F411111DC045281A
:100B80004628472851F4F6018789908DA18DB28DB2
:100B900086839783A087B1870FC0D60116964D91A3
:100BA0005D916D917C91199796012A5F3F4F0E944C
:100BB000EC12882309F467C0F601238D348D8681F9
:100BC0009781A085B1850297A109B109AC01BD014A
:100BD000F901058404C0440F551F661F771F0A944E
:100BE000D2F786859785A089B189840F951FA61FA6
:100BF000B71FBC01CD01610F711D811D911DD60173
:100C000014962C9126FF0DC04090000150900101D8
:100C10006090020170900301461657066806790637
:100C200099F440E00E940212882369F1F501E4552D
:100C3000FC4FDE0111969F012F5F3F4F2E173F079C
:100C400099F081918D93FACFFE0131967F0101E0F9
:100C500010E09501AB01BC018091AC059091AD0510
:100C60000E94D804882379F0F60182859385A485B3
:100C7000B5850196A11DB11D82879387A487B5878D
:100C8000898190E002C08FEF9FEF0F90DF91CF91AD
:100C90001F910F91FF90EF90DF90CF90BF90AF909A
:100CA0007F906F905F904F9008952F923F924F9258
:100CB0005F926F927F928F929F92AF92BF92CF92EC
:100CC000DF92EF92FF920F931F93CF93DF93CDB7F5
:100CD000DEB72B970FB6F894DEBF0FBECDBF7C01F9
:100CE000FE013196CE010C966F0130E23193E81788
:100CF000F907E1F7DA0130E087E09D91992331F1BE
:100D00009E3231F48A3009F46BC138E08AE0F5CFC5
:100D1000EAEBF0E04491442321F031969413FACFAA
:100D20005FC1831708F45CC14FED490F4E3508F0E1
:100D300057C141E0430FF601E30FF11D3FE9390FC1
:100D40003A3108F490529083342FD7CF8981803282
:100D500009F446C1322E8B01DB015B968D919C918B
:100D60005C97F701948F838F16961D921D921D92AA
:100D70001C921997FB011286138614861586B12CD6
:100D8000F80182859385A485B58543895489658951
:100D9000768984179507A607B70708F05BC025E09A
:100DA000B695A795979587952A95D1F7F82FFF7057
:100DB000AF2ED80115968C91823008F411C1C8016C
:100DC0000E946C0597FD0CC1F80182859385A4856E
:100DD000B5854F96A11DB11D82879387A487B587DE
:100DE000F0E2AF9EB001112464557C4F611571058E
:100DF00009F4F6C0DB018C91882319F0853EC1F41B
:100E0000F1C0B1100EC0F701A28A8091000190914B
:100E10000101A0910201B091030186879787A08B01
:100E2000B18BDB018C91882399F0BB24B394A8CFBC
:100E30004BE050E0C6010E94FD26892B09F0A0CFAF
:100E4000832D8073803309F4CBC0432D6A2DC4C039
:100E5000BB24B394832D8271823109F0C1C0BB20C1
:100E6000C1F0F701668577858089918941E00E940C
:100E70000212882309F4B4C0D70152968C91B0E2D3
:100E80008B9FC001112484559C4F009709F078C0B6
:100E9000A7C0F8018581823009F4A2C0C8010E9470
:100EA0003A01882309F49CC0D8015B96ED91FC912E
:100EB0005C9716968D909D90AD90BC901997B2E07E
:100EC0008B1A9108A108B108058404C0880C991CEC
:100ED000AA1CBB1C0A94D2F786859785A089B18984
:100EE000880E991EAA1EBB1E2480E1E08E1A91086E
:100EF000A108B108222009F124013501420C511C3E
:100F0000611C711C0E94C711882309F469C0ECEAB6
:100F1000F3E0119225E0EC3AF207D9F74092000194
:100F20005092010160920201709203018091D102FE
:100F300081608093D1022A94DDCFD8015B96ED9138
:100F4000FC915C9780E092E0A0E0B0E0058404C0F2
:100F5000880F991FAA1FBB1F0A94D2F7F801438973
:100F6000548965897689840F951FA61FB71F838BC7
:100F7000948BA58BB68BD70152961C928CEA93E08A
:100F800020E2FC0111922A95E9F72BE0F601DC0141
:100F900001900D922A95E1F721E238E2DC015196A9
:100FA0003C932E93509740E058E01F965C934E93ED
:100FB0001E9753963C932E93529759963C932E939B
:100FC000589757965C934E9356970E94C711882363
:100FD00039F0432DF7016289C7010E94D40205C090
:100FE00080E003C0B11021CF0ECF2B960FB6F8943E
:100FF000DEBF0FBECDBFDF91CF911F910F91FF904C
:10100000EF90DF90CF90BF90AF909F908F907F90A8
:101010006F905F904F903F902F900895FC01818DCD
:10102000928D009711F00C946C058FEF9FEF08954F
:101030000F931F93CF93DF93FC01818D928D0097C7
:10104000B9F0EF010E946C058C010F3F8FEF18077C
:1010500091F0898D9A8DFC01428553856485758553
:1010600041505109610971090E943D02C80105C042
:1010700080E090E002C08FEF9FEFDF91CF911F9152
:101080000F910895CF92DF92EF92FF920F931F93EB
:10109000CF93DF93EC01790141155105610571058D
:1010A00011F482E165C08B85833039F0E9E0440FAB
:1010B000551F661F771FEA95D1F79A01AB0168E1CA
:1010C000CE010E948804882311F084E051C08C85F1
:1010D00097013E5F6901882321F1F70100E010E0EC
:1010E000819190E081279C0144E0359527954A95B0
:1010F000E1F782279327102F0027082719279C0143
:10110000322F22273295307F0227132775E0880F70
:10111000991F7A95E1F708271927CE16DF0601F700
:1011200002C00FEF1FEF8EEF0E944C04F701819178
:101130007F010E944C04CE14DF04C1F7812F0E946E
:101140004C04802F0E944C040E94E2038A878F7116
:10115000853031F081E18D83CE010E94DD0309C02D
:1011600068E572E0CE010E941704811107C085E195
:101170008D83CE010E94DD0380E013C020E030E0CB
:10118000A9016DE0CE010E948804811104C00E9473
:10119000E203882311F084E1EBCFCE010E94DD034E
:1011A00081E0DF91CF911F910F91FF90EF90DF9041
:1011B000CF9008952F923F924F925F926F927F92BD
:1011C0008F929F92AF92BF92CF92DF92EF92FF9257
:1011D0000F931F93CF93DF9300D000D0CDB7DEB72E
:1011E0008C015B011A01DC0115968C9115978130F9
:1011F000C9F414968C9181FF15C082FF1DC0F801BF
:10120000438954896589768982859385A485B585C6
:1012100084179507A607B70779F0C8010E943D0219
:1012200081110AC081E090E0D80113969C938E93BF
:10123000129780E090E036C1610183C05B968D918A
:101240009C915C97FC0174802FEF270D2A013B01D4
:1012500039E076946794579447943A95D1F7722E73
:1012600074207A01F1E0FF22772009F476C080E053
:1012700092E08E199F0946018C159D0508F44C01DA
:10128000D8015B962D913C915C9716968D919D911E
:101290000D90BC91A02D0297A109B109F901058417
:1012A00004C0880F991FAA1FBB1F0A94D2F7468556
:1012B000578560897189840F951FA61FB71F9C01F0
:1012C000AD01270D311D411D511D29013A01811428
:1012D00032E0930609F088C08091000190910101ED
:1012E000A0910201B0910301481659066A067B06D7
:1012F00059F48FEF9FEFDC0180930001909301017F
:10130000A0930201B09303019501B301A201809162
:10131000AC059091AD050E944208882309F482CF64
:101320009EEFB91AC818D908F80182859385A4855B
:10133000B585880D991DA11DB11D82879387A4874E
:10134000B587D8011A964D915D916D917C911D974D
:10135000C114D10409F072CF87C0E114F10409F07F
:1013600086CF16964D915D916D917C91199741159F
:1013700051056105710559F457968D919D910D9018
:10138000BC91A02D0097A105B10541F521C09E019A
:101390002F5F3F4F0E94EC12882309F44BCF8981C5
:1013A0009A81AB81BC81F801238D348DF9012789A5
:1013B000203129F048EF5FEF6FEF7FE004C048EF86
:1013C0005FEF60E070E084179507A607B70730F07D
:1013D000C8010E943A0181114ACF24CFF8018683C7
:1013E0009783A087B18743CFE114F10429F5D80191
:1013F0001A964D915D916D917C911D9753968D91AB
:101400009D910D90BC91A02D481759076A077B0745
:1014100098F00E94C711882309F404CF409200017C
:101420005092010160920201709203018091D102F9
:1014300081608093D10208C041E0C301B2010E94E3
:101440000212882309F4EECED501F701E455FC4FD2
:101450009F01280D391D2E173F0719F08D9181939B
:10146000FACFA80CB91C5ECFF80183899489A589AD
:10147000B68984179507A607B70738F4438B548BB2
:10148000658B768B848180688483F801848183FDF9
:1014900002C0C10107C0C8010E94F900882309F4F5
:1014A000C1CEF7CF0F900F900F900F90DF91CF919B
:1014B0001F910F91FF90EF90DF90CF90BF90AF9072
:1014C0009F908F907F906F905F904F903F902F9064
:1014D0000895CF93DF931F92CDB7DEB7698341E0C4
:1014E00050E0BE016F5F7F4F0E94DA080F90DF91DE
:1014F000CF910895CF93DF93EC01898D9A8D00975A
:1015000039F481E090E09B838A8380E090E00BC017
:10151000FC01138212820E94DA08E98DFA8D228181
:101520003381232B71F7DF91CF9108959CB59C7F78
:10153000282F2370922B9CBD2DB582FB992790F903
:10154000822F8E7F892B8DBD0895FC01DB011296C1
:101550008D919C9113979383828382E391E0918391
:10156000808314968C911497848315968C9115978B
:10157000858316964D915D916D917C911997468367
:101580005783608771871A964D915D916D917C911B
:101590001D9742875387648775871E964D915D918D
:1015A0006D917C91519746875787608B718B5296CE
:1015B0008C915297828B53964D915D916D917C9158
:1015C0005697438B548B658B768B57964D915D91D7
:1015D0006D917C915A97478B508F618F728F5B967C
:1015E0008D919C915C97948F838F0895CF92DF9219
:1015F000EF92FF920F931F93CF93DF936C017A01C9
:101600008B01C0E0D0E0CE15DF0581F0D8016D91EF
:101610008D01D601ED91FC910190F081E02DC60184
:101620000995892B11F02196EECF7E01C701DF913C
:10163000CF911F910F91FF90EF90DF90CF90089581
:10164000FC01538D448D252F30E0842F90E0821BC8
:10165000930B541710F0CF96089501970895FC014D
:10166000918D828D981761F0828DDF01A80FB11DD9
:101670005D968C91928D9F5F9F73928F90E00895FD
:101680008FEF9FEF0895FC01918D828D981731F0B7
:10169000828DE80FF11D858D90E008958FEF9FEF0B
:1016A0000895FC01918D228D892F90E0805C9F4FE1
:1016B000821B91098F73992708958EEA95E00E9405
:1016C000510B21E0892B09F420E0822F0895FC01C1
:1016D000848DDF01A80FB11DA35ABF4F2C91848DBB
:1016E00090E001968F739927848FA689B7892C93F0
:1016F000A089B1898C91837080648C93938D848D43
:10170000981306C00288F389E02D80818F7D808345
:101710000895EF92FF920F931F93CF93DF93EC0105
:1017200081E0888F9B8D8C8D981305C0E889F9899D
:10173000808185FD26C0F62E0B8D10E00F5F1F4FB8
:101740000F731127E02E8C8DE8120CC00FB607FC2A
:10175000FACFE889F989808185FFF5CFCE010E9413
:10176000670BF1CF8B8DFE01E80FF11DE35AFF4FA0
:10177000F0829FB7F8940B8FEA89FB8980818062A1
:101780000AC09FB7F894EE89FF896083E889F989D8
:1017900080818370806480839FBF81E090E0DF91CF
:1017A000CF911F910F91FF90EF900895CF93DF930A
:1017B000EC01888D8823C9F0EA89FB89808185FD49
:1017C00005C0A889B9898C9186FD0FC00FB607FCAA
:1017D000F5CF808185FFF2CFA889B9898C9185FFEB
:1017E000EDCFCE010E94670BE7CFDF91CF91089537
:1017F00080E090E0892B29F00E945D0B81110C9410
:101800000000089585ED8093BC008091BC0084FDAC
:10181000FCCF10928703089540913603262F30E0C5
:10182000240F311D21323105DCF42091870324304F
:10183000C9F4FC0180E090E0861758F4309136033B
:101840002191DC01AA5EBC4FA30FB11D2C93019620
:10185000F3CF80913603680F6093360380E00895DC
:1018600081E0089582E00895089508950895E09133
:10187000990280919802E81730F4F0E0E656FD4FA7
:10188000808190E008958FEF9FEF089590919902E5
:1018900080919802981750F4E92FF0E0E656FD4F3A
:1018A000208130E09F5F9093990202C02FEF3FEFBD
:1018B000C90108958091980290E020919902821BBD
:1018C00091090895CF92DF92EF92FF920F931F93A9
:1018D000CF93DF937C01CB018A01209188032223DF
:1018E00089F0EB016B01C40ED51ECC15DD0569F046
:1018F0006991D701ED91FC910190F081E02DC70134
:101900000995F3CF642F0E940C0CC801DF91CF9191
:101910001F910F91FF90EF90DF90CF900895CF939C
:10192000DF931F92CDB7DEB769832091880322230E
:10193000D1F02091AB03203240F021E030E0FC01F7
:101940003383228380E090E015C080918903E82FE3
:10195000F0E0E657FC4F998190838F5F8093890375
:101960008093AB0305C061E0CE0101960E940C0C90
:1019700081E090E00F90DF91CF910895209188024F
:10198000309189022817390771F49091860280916D
:101990008702981741F0E0918602F0E0EA52FD4F8D
:1019A000808190E008958FEF9FEF08951F93CF936C
:1019B000DF93DC015C968D919C915D97009739F4E3
:1019C00021E030E013963C932E9312973BC0519642
:1019D000ED91FC91529750962C915097322F309563
:1019E0001FB75E964C915E97742F727041FD6095A3
:1019F000F8944081772311F0422B01C043234083A8
:101A0000EC012197F1F748E0508160FF02C0522BB2
:101A100001C053235083EC012197F1F766954150A3
:101A200099F78081772319F08323808302C0282BC4
:101A300020831FBF5C968D919C915D970197F1F774
:101A400081E090E0DF91CF911F910895209188026D
:101A5000309189022817390771F48091870220910B
:101A6000860290E0805C9F4F821B910960E470E0E9
:101A70000E942923089580E090E008952091880233
:101A80003091890228173907B9F490918602809124
:101A90008702981789F0E0918602F0E0EA52FD4F44
:101AA00080812091860230E02F5F3F4F2F733327D4
:101AB0002093860290E008958FEF9FEF08950E9493
:101AC000F826DC01ED91FC910190F081E02D099464
:101AD0006115710579F0FB0101900020E9F731975C
:101AE000AF01461B570BDC01ED91FC910280F381A5
:101AF000E02D099480E090E008958F929F92AF923C
:101B0000BF92EF92FF920F931F93CF93DF93CDB7C6
:101B1000DEB7A1970FB6F894DEBF0FBECDBF7C0134
:101B2000FA01CB0119A2223008F42AE08E010F5DE0
:101B30001F4F822E912CA12CB12CBF01A501940125
:101B40000E943D23F901CA01015011096A3014F4C1
:101B5000605D01C0695CD8016C93232B242B252B7D
:101B600061F7B801C7010E94680DA1960FB6F894FD
:101B7000DEBF0FBECDBFDF91CF911F910F91FF90C0
:101B8000EF90BF90AF909F908F9008957F928F922B
:101B90009F92AF92BF92CF92DF92EF92FF920F93FC
:101BA0001F93CF93DF938C016A017B01722E9A0100
:101BB000AB01C701B6010E94D225882319F06AE75C
:101BC00072E027C046015701E894B7F82FEF3FEFC6
:101BD0004FE75FE7C501B4010E94D22581110DC016
:101BE0002FEF3FEF4FE75FE7C501B4010E940824E4
:101BF00018161CF46EE772E00CC02FEF3FEF4FE7B2
:101C00005FE4C701B6010E946025181694F462E8EB
:101C100072E0C801DF91CF911F910F91FF90EF907B
:101C2000DF90CF90BF90AF909F908F907F900C945B
:101C3000680D2FEF3FEF4FE75FECC701B6010E9441
:101C4000082487FDE4CF20E030E0A901C701B601F8
:101C50000E94082487FF0AC06DE2C8010E94610D3E
:101C6000EC01F7FAF094F7F8F09402C0C0E0D0E08D
:101C7000B12C60E070E080E09FE37B1441F020E055
:101C800030E040E251E40E940D24B394F6CFA70166
:101C900096010E949C236B017C010E947F244B01D2
:101CA0005C012AE0AB01BC01C8010E947D0DC80F98
:101CB000D91F7720C1F1C501B4010E94AE249B0158
:101CC000AC01C701B6010E949B236B017C016EE24F
:101CD000C8010E94610DC80FD91F20E030E040E22A
:101CE00051E4C701B6010E9465254B015C010E94C9
:101CF0007F246B01E12CF12C2AE0B701A601C80179
:101D00000E947D0DC80FD91FC701B6010E94AE24E5
:101D10009B01AC01C501B4010E949B236B017C01B6
:101D20007A947110DACFCE01DF91CF911F910F918C
:101D3000FF90EF90DF90CF90BF90AF909F908F90EB
:101D40007F9008950F931F93CF93DF93EC010E9430
:101D5000C60D8C0167E772E0CE010E94680D800F0E
:101D6000911FDF91CF911F910F9108950C94680DF1
:101D70001F920F920FB60F9211242F933F934F9300
:101D80005F936F937F938F939F93AF93BF93EF93E3
:101D9000FF938EEA95E00E94670BFF91EF91BF9150
:101DA000AF919F918F917F916F915F914F913F91F3
:101DB0002F910F900FBE0F901F9018951F920F92AA
:101DC0000FB60F9211242F938F939F93EF93FF934E
:101DD000E091BE05F091BF058081E091C405F091CE
:101DE000C50582FD12C090818091C7058F5F8F73FA
:101DF0002091C805821751F0E091C705F0E0E25547
:101E0000FA4F958F8093C70501C08081FF91EF91B4
:101E10009F918F912F910F900FBE0F901F9018954B
:101E20001F920F920FB60F9211242F933F934F934F
:101E30005F936F937F938F939F93AF93BF93EF9332
:101E4000FF938091B900887F803609F49CC068F5C3
:101E5000883209F45BC090F4803109F454C038F43E
:101E6000882309F4F6C0883009F44DC0F6C08831E3
:101E700009F44CC0803209F45DC0EFC0803409F42D
:101E800068C048F4803309F455C0883309F0E5C0D0
:101E900080938503D8C0803509F44FC0883509F494
:101EA0005DC0883409F0D9C0D6C0883909F4C7C0EC
:101EB000A8F4883709F467C038F4883609F463C099
:101EC000803709F460C0C9C0883809F4B8C08039C7
:101ED00009F45FC0803809F0C0C05BC0803B09F4E2
:101EE00086C038F4803A09F466C0883A09F47FC0A5
:101EF000B4C0803C09F4A7C0883C09F4A4C0883B66
:101F000009F48AC0AAC08091620310C09091840332
:101F100080918303981770F5E091840381E08E0F20
:101F200080938403F0E0ED59FC4F80818093BB00E7
:101F300085EC86C0809385038EC0E091840381E0A8
:101F40008E0F809384038091BB00F0E0ED59FC4F2D
:101F5000808390918403809183036EC0E091840319
:101F600081E08E0F809384038091BB00F0E0ED59F7
:101F7000FC4F80838091860381116DC081E0809346
:101F8000610384EA61C083E0809387031092580361
:101F9000CFCF80915803803208F051C0E0915803B0
:101FA00081E08E0F809358038091BB00F0E0E85CE5
:101FB000FC4F8083BDCF85EC8093BC0010928703DB
:101FC00080915803803230F4E0915803F0E0E85CEF
:101FD000FC4F10826091580370E0E0918A02F0910A
:101FE0008B0288E393E009951092580336C084E091
:101FF000809387031092370310923603E0918C028E
:10200000F0918D02099580913603811105C081E020
:102010008093360310921603E091370381E08E0F10
:1020200080933703F0E0EA5EFC4F80818093BB0031
:102030009091370380913603981708F479CF85E89B
:102040008093BC000AC085EC8093BC00109287038B
:1020500004C0109285030E94020CFF91EF91BF9182
:10206000AF919F918F917F916F915F914F913F9130
:102070002F910F900FBE0F901F901895CF93DF9365
:10208000EC018A859B85AC85BD858E839F83A8875F
:10209000B9870E94B5166A837B838C839D8381E018
:1020A00089838883DF91CF910895CF93DF93EC01EB
:1020B0008E819F81A885B9858A839B83AC83BD83EC
:1020C0000E94B5166A877B878C879D8781E089830C
:1020D0008883DF91CF9108952F923F924F925F9224
:1020E0006F927F928F929F92AF92BF92CF92DF9228
:1020F000EF92FF920F931F93CF93DF93D82FC92FA7
:102100008B010E94DD2224E630E040E050E00E9496
:102110003D2349015A019B01AC0160E876E988E959
:1021200090E00E9419236B017C01F801918280826A
:10213000ED2FFC2F2191822F022E000C990BC097BE
:102140000A97C0F32E3239F51F0180E8882E86E900
:10215000982E88E9A82EB12C9AE0492E512C612C9A
:10216000712CF101C1911F010C2E000CDD0BE097C9
:10217000CA30D10580F4C501B401A30192010E94C7
:102180003D2349015A01DE010E947023C60ED71E6D
:10219000E81EF91EE6CFA5E0B0E0A70196010E9477
:1021A00065236F5F7F4F8F4F9F4F23E030E040E00C
:1021B00050E00E943D23F8012283338344835583FA
:1021C0001682DF91CF911F910F91FF90EF90DF90DA
:1021D000CF90BF90AF909F908F907F906F905F90C7
:1021E0004F903F902F900895FF920F931F93CF939E
:1021F000DF93EC01F8802DE2F21201C02196CE01AE
:102200000E94DD229B01AC01A4E6B0E00E946523A0
:10221000FE014991242F042E000C330B2053310969
:102220002A303105A8F34E3241F52181022E000CEF
:10223000330B205331092A303105F8F44AE0429F2C
:102240008001439F100D1124012E000C220B330B33
:10225000600F711F821F931F0281002E000C110B53
:10226000005311090A30110540F4012E000C220B15
:10227000330B600F711F821F931F2DE2F21207C0F4
:1022800090958095709561957F4F8F4F9F4FDF910F
:10229000CF911F910F91FF9008951F920F920FB64B
:1022A0000F9211242F933F934F935F936F937F93DC
:1022B0008F939F93AF93BF93EF93FF93E091880227
:1022C000F0918902309709F451C0968DA685B785A3
:1022D000858591FF04C09C91892329F447C09C9176
:1022E000892309F043C0A389B4899C91858980958D
:1022F00089238C93868997890197F1F7608D718D79
:10230000A685B785558538E020E0CB010197F1F728
:10231000822F90E095958795282F4C91452309F0C1
:102320002068315091F7868D81FD2095809187023C
:1023300090E001968F73992730918602381749F003
:10234000A0918702B0E0AA52BD4F2C9380938702E0
:1023500003C0868D8160868F828D938D0197F1F702
:10236000A389B4899C918589892B8C93FF91EF91E6
:10237000BF91AF919F918F917F916F915F914F919D
:102380003F912F910F900FBE0F901F901895809145
:10239000D1028823A9F1409100015091010160917F
:1023A0000201709103012CEA33E08091AC05909119
:1023B000AD050E944208811102C080E0089540915D
:1023C000D2025091D3026091D4027091D50241158E
:1023D00051056105710591F02CEA33E08091AC055F
:1023E0009091AD050E944208882339F31092D202E1
:1023F0001092D3021092D4021092D5021092D10200
:1024000081E008958F929F92AF92BF92EF92FF92D8
:102410000F931F93CF934B015C01C42F8091000158
:1024200090910101A0910201B091030188159905D5
:10243000AA05BB0501F10E94C711811102C080E00D
:1024400020C08CEAE82E83E0F82E00E012E020E0C5
:1024500030E0B501A4018091AC059091AD050E94DA
:10246000D804882361F38092000190920101A09228
:102470000201B09203018091D102C82BC093D10216
:1024800081E0CF911F910F91FF90EF90BF90AF909F
:102490009F908F9008954F925F926F927F928F924C
:1024A0009F92AF92BF92CF92DF92EF92FF920F93E3
:1024B0001F93CF93DF93EC01423051056105710505
:1024C00010F480E078C089859A85AB85BC8501963B
:1024D000A11DB11D84179507A607B70790F3CB88F8
:1024E000DC88ED88FE888F89803129F4BB27A72FEF
:1024F000962F852F09C0DB01CA01E7E0B695A795A5
:1025000097958795EA95D1F7480159012A013B0132
:10251000C80ED91EEA1EFB1E809100019091010198
:10252000A0910201B0910301C816D906EA06FB0684
:1025300081F48F898031A9F4B301A2015527662760
:102540007727440F551FFA01E455FC4F9182808292
:1025500019C040E0C701B6010E9402128111E9CF03
:10256000B0CFB301A2014F77552766277727440FD5
:10257000551F440F551FFA01E455FC4F808291828C
:10258000A282B3828091D10281608093D1028A8934
:10259000823080F08D819E81AF81B885C80ED91EB2
:1025A000EA1EFB1EC092D202D092D302E092D40265
:1025B000F092D50281E0DF91CF911F910F91FF90B2
:1025C000EF90DF90CF90BF90AF909F908F907F90D3
:1025D0006F905F904F9008958F929F92AF92BF92AD
:1025E000CF92DF92EF92FF920F931F93CF93DF93DF
:1025F000FC0181859285A385B4850196A11DB11D3D
:1026000084179507A607B70710F480E05BC083889E
:102610009488A588B6888789803129F4BB27A72F9D
:10262000962F852F09C0DB01CA01C7E0B695A79593
:1026300097958795CA95D1F7E9016A017B018F01CA
:10264000BC01CD01680D791D8A1D9B1D8090000184
:1026500090900101A0900201B090030168157905E6
:102660008A059B0591F4F80187898031A1F4DD2466
:10267000EE24FF24C601880F991FFC01E455FC4F8E
:1026800080819181A0E0B0E018C040E00E94021279
:102690008111E9CFBACFE894C7F8DD24EE24FF24F6
:1026A000C601880F991F880F991FFC01E455FC4F44
:1026B00080819181A281B381BF7088839983AA832D
:1026C000BB8381E0DF91CF911F910F91FF90EF903D
:1026D000DF90CF90BF90AF909F908F9008953FB7BD
:1026E000F89480915D0390915E03A0915F03B09197
:1026F000600326B5A89B05C02F3F19F00196A11DC8
:10270000B11D3FBFBA2FA92F982F8827820F911D87
:10271000A11DB11DBC01CD0142E0660F771F881FCE
:10272000991F4A95D1F70895EF92FF920F931F9347
:10273000CF93DF93EC017B018A011B821A8288EE22
:1027400093E0A0E0B0E08C839D83AE83BF838EE3F3
:1027500091E0998388838DE190E00E94D7259A8F3C
:10276000898F009779F02DE1F701DC0101900D923E
:102770002A95E1F74CE050E0B801CE010C960E949A
:102780001A27188EDF91CF911F910F91FF90EF9034
:1027900008954F925F926F927F92AF92BF92CF92C5
:1027A000DF92EF92FF920F931F93CF93DF9300D0AE
:1027B00000D0CDB7DEB78C0149835A836B837C830D
:1027C0005901C12CD12C7601412C82E0582E612C6C
:1027D000712C49815A816B817C819E012F5F3F4F13
:1027E000C8010E94EC12882351F1D301C201F80103
:1027F000058404C0880F991FAA1FBB1F0A94D2F733
:10280000C80ED91EEA1EFB1E49815A816B817C814C
:102810008789803129F088EF9FEFAFEFBFE004C0D8
:1028200088EF9FEFA0E0B0E0481759076A077B07E1
:1028300080F2F501C082D182E282F38281E00F90C2
:102840000F900F900F90DF91CF911F910F91FF90FC
:10285000EF90DF90CF90BF90AF907F906F905F90A0
:102860004F9008958F929F92AF92BF92CF92DF9236
:10287000EF92FF92CF93DF93C82F87E596E0909376
:10288000AD058093AC05CC2369F1C53010F080E034
:102890000CC140E060E070E0CB010E94021288238E
:1028A000B1F320E1C29FC001112484569C4FFC016A
:1028B000E254FE4F20812F7751F73C9640815181A1
:1028C00062817381443651056105710500F33497C7
:1028D000C080D180E280F380C114D104E104F1040E
:1028E00021F4D5CFC12CD12C760140E0C701B6012F
:1028F0000E940212882359F28091B7039091B80385
:102900008115924021F6A091BC03AA2309F4BFCF00
:102910006091BA037091BB036115710509F4B7CFDB
:102920002091B903222309F4B2CFA0937606209315
:10293000680680E030E041E050E0C82FFA01082E40
:1029400002C0EE0FFF1F0A94E2F72E173F0739F07F
:102950008F5FC83091F789E08093710698CF80939C
:1029600071062091C2033091C3032115310519F07E
:1029700040E050E008C02091D0033091D103409155
:10298000D2035091D3032093690630936A06409393
:102990006B0650936C0646015701860E971EA11CCC
:1029A000B11C8092770690927806A0927906B09238
:1029B0007A06E091BD03F091BE03F0937D06E093AB
:1029C0007C06B0E00E946523860E971EA81EB91EE5
:1029D00080927E0690927F06A0928006B092810639
:1029E00085E0EE0FFF1F8A95E1F7E150FE4FEF2FD4
:1029F000FF27E6958E0E9F1EA11CB11C80927206C9
:102A000090927306A0927406B09275062091BF034F
:102A10003091C0032115310521F0A90160E070E07B
:102A200008C04091CC035091CD036091CE037091CA
:102A3000CF03D701C60188199909AA09BB09840FD8
:102A4000951FA61FB71F04C0B695A79597958795A4
:102A5000CA95D2F780936D0690936E06A0936F0689
:102A6000B0937006853F2FE09207A105B10510F4E1
:102A70008CE018C0853F9F4FA105B10510F480E19F
:102A800011C08091D8039091D903A091DA03B0913D
:102A9000DB0380937E0690937F06A0938006B0931D
:102AA000810680E280937B0681E0DF91CF91FF90E9
:102AB000EF90DF90CF90BF90AF909F908F90089550
:102AC000282F3091AB03313208F04AC08091870340
:102AD0008111FCCF9091AA0342E040938703209399
:102AE00086032FEF20938503109284033093830392
:102AF000EAE8F3E0A3E6B3E020E0321721F04191E9
:102B00004D932F5FFACF1092620320916203990FC9
:102B1000922B9093620390916103913061F4109233
:102B20006103909162039093BB009091BC0093FD70
:102B3000F8CF95EC01C095EE9093BC00909187037F
:102B40009230E1F3909185039F3F79F08091850366
:102B5000803241F080918503803331F084E005C0FC
:102B600081E003C082E001C083E0109289031092EB
:102B7000AB03109288030895CF92DF92EF92FF92F9
:102B80000F931F93CF93DF936B01770FEE08FF082E
:102B9000F7FE1BC0EC016DE20E94610D8C01442721
:102BA0005527BA014C195D096E097F092AE0CE014B
:102BB0000E947D0D800F911FDF91CF911F910F918A
:102BC000FF90EF90DF90CF9008952AE0B701A60123
:102BD000DF91CF911F910F91FF90EF90DF90CF90F9
:102BE0000C947D0D90E0FC01EC52FF4F2491FC0110
:102BF000E05FFE4F3491FC01E450FF4FE491EE237F
:102C000009F43CC0222339F1233091F038F421300B
:102C1000A9F0223001F584B58F7D12C0273091F0E4
:102C20002830A1F02430B9F4809180008F7D03C05A
:102C3000809180008F77809380000DC084B58F775E
:102C400084BD09C08091B0008F7703C08091B0002F
:102C50008F7D8093B000F0E0EE0FFF1FEE50FF4F2E
:102C6000A591B4919FB7F894611104C08C913095EF
:102C7000382302C0EC913E2B3C939FBF0895CF9325
:102C8000DF9390E0FC01E05FFE4F2491FC01E450F3
:102C9000FF4F8491882361F190E0880F991FFC0118
:102CA000E653FF4FC591D491FC01EE50FF4FA59123
:102CB000B491611109C09FB7F8948881209582234F
:102CC0008883EC912E230BC0623061F49FB7F89497
:102CD0008881322F309583238883EC912E2B2C937F
:102CE0009FBF06C08FB7F894E8812E2B28838FBF33
:102CF000DF91CF9108958F929F92AF92BF92CF9222
:102D0000DF92EF92FF926B017C010E946F134B01E7
:102D10005C01C114D104E104F104F1F00E946F13CD
:102D2000DC01CB0188199909AA09BB09883E9340A7
:102D3000A105B10570F321E0C21AD108E108F1083C
:102D400088EE880E83E0981EA11CB11CC114D1042A
:102D5000E104F10419F7DDCFFF90EF90DF90CF9001
:102D6000BF90AF909F908F9008952FB7F894609187
:102D7000590370915A0380915B0390915C032FBFBC
:102D800008951F920F920FB60F9211242F933F9325
:102D90008F939F93AF93BF938091590390915A0360
:102DA000A0915B03B0915C033091880723E0230F6F
:102DB0002D3720F40196A11DB11D05C026E8230F73
:102DC0000296A11DB11D209388078093590390930B
:102DD0005A03A0935B03B0935C0380915D039091D1
:102DE0005E03A0915F03B09160030196A11DB11D28
:102DF00080935D0390935E03A0935F03B0936003A1
:102E0000BF91AF919F918F913F912F910F900FBEE6
:102E10000F901F901895CF93DF93CDB7DEB7C857AB
:102E2000D1090FB6F894DEBF0FBECDBF789484B53C
:102E3000826084BD84B5816084BD85B5826085BDB6
:102E400085B5816085BD80916E00816080936E0044
:102E50001092810080918100826080938100809136
:102E600081008160809381008091800081608093E7
:102E700080008091B10084608093B1008091B000A7
:102E800081608093B00080917A00846080937A00A2
:102E900080917A00826080937A0080917A008160CC
:102EA00080937A0080917A00806880937A001092F3
:102EB000C10061E08DE00E943F161092D70610928B
:102EC000D6061092D5061092D4061092D306109210
:102ED000D2068DE991E09093D9068093D80690911F
:102EE000C806963108F058C02DEB30E03093D30679
:102EF0002093D2062BE931E03093D5062093D406F7
:102F00002CE231E03093D7062093D606409168003A
:102F1000983058F031E09E3008F430E021E0822F04
:102F200001C0880F3A95EAF701C084E0842B8093B2
:102F30006800983038F09E3040F0963148F020E03C
:102F400030E008C02DE630E005C02BE630E002C0DE
:102F50002CE630E03093D0062093CF06983030F442
:102F600081E001C0880F9A95EAF70EC0292F30E062
:102F70009E3018F42850310902C02E50310981E0EA
:102F800001C0880F2A95EAF78093D1068091D80670
:102F90009091D9060197F1F78091D6069091D706C6
:102FA000892B49F1E0918802F091890226E0EC3BFF
:102FB000F20709F1309739F0A389B4899C9185898A
:102FC000809589238C938091DA068E7F8093DA0630
:102FD00010928702109286028CEB96E09093890201
:102FE00080938802E091CF06F091D0069081809185
:102FF000D106892B8083E091BE05F091BF0582E068
:103000008083E091BA05F091BB051082E091BC0588
:10301000F091BD058FEC80831092C605E091C2054A
:10302000F091C30586E08083E091C005F091C10571
:10303000808180618083E091C005F091C10580812D
:1030400088608083E091C005F091C105808180682F
:103050008083E091C005F091C10580818F7D8083E0
:103060001092990210929802109289031092AB0369
:103070001092870311E0109386031092610361E0C0
:1030800082E10E94F21561E083E10E94F2158091D5
:10309000B9008E7F8093B9008091B9008D7F8093B5
:1030A000B90088E48093B80085E48093BC0084E391
:1030B0009CE090938D0280938C0285E39CE090933A
:1030C0008B0280938A021093880388E68093AA0378
:1030D000109289031092AB036BE68BE496E00E949A
:1030E0008F0C60E08BE496E00E948F0C81E00E94E0
:1030F000601561E08AE00E943F161092620610920D
:10310000600610925D0610925C061092630684E0E1
:1031100080935B068FEF8093BC028093BB02809309
:1031200097020E94B5168B0161E080915B060E94B8
:103130003F1687E596E00E94DD03FFB6F894809184
:10314000BA02811127C0E6E0F1E08491EAE1F1E002
:103150009491E82FF0E0EE0FFF1FE653FF4FA5918B
:10316000B491EC91E92321F461E08AE00E94F21528
:1031700061E08AE00E943F168CB580618CBD8CB501
:1031800080648CBD61E08DE00E943F1661E08BE0C1
:103190000E943F168091BA028F5F8093BA02FFBEF1
:1031A00083E00E94960A5AE0F52E8FEF0E944C04AD
:1031B000FA94F110FACF60E080915B060E94F2155C
:1031C00020E030E0A90160E087E596E00E948804F5
:1031D000F82E8093610631E0831749F00E94B516FE
:1031E000601B710B613D774058F381E056C02AEABD
:1031F00031E040E050E068E087E596E00E94880416
:1032000082FF03C0F092620610C044E0F42E0E94D8
:10321000E20380936106FA94F110F9CF8A3A11F033
:1032200082E03BC082E08093620680916206823039
:1032300021F0C12CD12C760105C0C12CD12CE12C60
:1032400030E4F32E20E030E0A90167E387E596E063
:103250000E948804A701960169E287E596E00E9432
:10326000880480936106882349F00E94B516601B8C
:10327000710B613D774030F388E00FC080916206AA
:10328000823001F520E030E0A9016AE387E596E0AD
:103290000E948804882341F086E080935C0687E5DD
:1032A00096E00E94DD0323C00E94E203807C803C04
:1032B00019F483E0809362060E94E2030E94E20315
:1032C0000E94E20387E596E00E94DD038091970269
:1032D0008F3F19F480E00E94960A81E00E94321428
:1032E000811121C780E00E94321481111CC762E85D
:1032F00076E0CE0101960E94A50ABE016F5F7F4F66
:10330000CE01CB960E94A50A19A218A282E391E0F1
:103310009F8F8E8F1BA221968FAD219781111CC08C
:103320006C961FAE1EAE6C9788EE93E0A0E0B0E006
:10333000A0968CAF9DAFAEAFBFAFA0978EE391E0EC
:103340006A969FAF8EAF6A97E3961FAE1EAEE39765
:10335000A5961FAEA59735C0825023E14CE751E0FA
:10336000823048F462E876E0CE014E960E9455061F
:1033700081110EC0D5CFBE01655C7F4FCE014E9648
:103380000E945506882361F2CE01CB960E94D1039C
:1033900049A95AA96BA97CA9CE014E960E943D026B
:1033A000BE01625E7F4FCE0101960E94A50A4CE7E6
:1033B00051E0BE016F5F7F4FCE01885A9F4F0E9440
:1033C00094136C968EAD9FAD6C979093A4068093EA
:1033D000A306A0968CAD9DADAEADBFADA09780937A
:1033E000A5069093A606A093A706B093A806A49658
:1033F0008CAD9DADAEADBFADA4978093A906909363
:10340000AA06A093AB06B093AC06A8E5B0E0AC0F5B
:10341000BD1F1C96EDEAF6E08D91819326E0EA3B14
:10342000F207D1F7E3968EAD9FADE3979093BB067D
:103430008093BA06BB24B39482E0A82E01E08CEB03
:1034400096E00E94260D181619060CF096C28CEB19
:1034500096E00E943E0D182F809178079091790791
:10346000A0917A07B0917B070196A11DB11D8093B1
:10347000780790937907A0937A07B0937B0714326B
:1034800009F45AC2E0917207153234F41A3071F01F
:103490001D3009F05EC20AC01A3241F01C3209F038
:1034A00058C280915F07812780935F07EF3008F053
:1034B00035C2F0E0EF59F84F108280916007882301
:1034C00009F41CC1209161073FEB320F822F022EBD
:1034D000000C990B363010F4C79707C021562630E0
:1034E00018F48755910901C0C097282F2295207F95
:1034F000309162074FEB430F832F032E000C990B83
:10350000463010F4C79707C03156363018F4875547
:10351000910901C0C097820F90915F078913DAC0AB
:103520008091840790918507A0918607B0918707C5
:103530000196A11DB11D8093840790938507A093E8
:103540008607B093870780917307882399F080914D
:103550007C0790917D07A0917E07B0917F0701962F
:10356000A11DB11D80937C0790937D07A0937E07DA
:10357000B0937F07F0907007FF20B9F131E0F312AC
:1035800082C08DEF96E00E9455108BE097E00E947C
:10359000551080917307882309F475C087E0EBEE1E
:1035A000F6E0ADEDB6E001900D928A95E1F787E087
:1035B000E2EFF6E0A4EEB6E001900D928A95E1F715
:1035C0000E94B5166093F9067093FA068093FB0685
:1035D0009093FC06F092DC06F092DB0689E197E01E
:1035E0000E943E1087E297E04CC08BE097E00E947B
:1035F000551080917307882321F187E0EBEEF6E008
:10360000ADEDB6E001900D928A95E1F787E0E2EF2B
:10361000F6E0A4EEB6E001900D928A95E1F70E94E3
:10362000B5166093F9067093FA068093FB069093A3
:10363000FC060093DC060093DB0685E397E00E941E
:103640003E1080914D0790914E07A0914F07B09189
:1036500050078093490790934A07A0934B07B09374
:103660004C070E94B51660934507709346078093F8
:10367000470790934807009344070093430781E569
:1036800097E00E943E10E0907607F0907707E114F3
:10369000F10409F443C1E0917607F091770766A140
:1036A00077A1F70186A197A10E940A27892B09F02B
:1036B00035C1B701C70140960E9413270E94B51675
:1036C000F70160A371A382A393A3B5A2B4A2E2A45D
:1036D000F3A4DDCF8091800790918107A0918207AC
:1036E000B09183070196A11DB11D8093800790932F
:1036F0008107A0938207B093830710C1909171074F
:10370000911145C06BE871E081E697E00E940A27BD
:10371000892B41F061E971E081E697E00E940A2778
:10372000892B19F40093700715C067E971E081E6F1
:1037300097E00E940A27892B41F06DE971E081E64C
:1037400097E00E940A27892B19F41092700702C093
:10375000A0927007809174079091750790937707F6
:1037600080937607E0907607F0907707E114F104F4
:1037700009F4D4C061E677E0F70186A197A10E9421
:103780000A2797FFC5C0F70182A593A5E7CFE0916F
:103790007007E23009F491C080916107882309F431
:1037A0008CC020E2E29FF0011124E92B3197E9322D
:1037B000F10508F082C0EC5CFF4F0C945F2381E6BA
:1037C00097E00E94F41060931107709312078093A2
:1037D00013079093140771C091E0813409F043C03E
:1037E00043C06BEE76E009C091E0833509F090E0CC
:1037F0009093F10662C062EF76E081E697E00E9466
:103800006C105BC091E0873509F090E09093F8066A
:1038100054C081E697E00E94F410609323077093F0
:103820002407809325079093260747C081E697E0F9
:103830000E94F4106093310770933207809333072E
:10384000909334073AC081E697E00E94DD226093AE
:1038500003077093040780930507909306072DC014
:1038600091E081330CF490E09093730726C081E6D9
:1038700097E00E94DD2260934D0770934E0780937E
:103880004F079093500719C081E697E00E94F4100B
:1038900060935B0770935C0780935D0790935E076E
:1038A0000CC081E697E00E94F41060933F0770938C
:1038B00040078093410790934207E0907607F0908D
:1038C0007707E114F10451F1E0917607F091770761
:1038D00066A177A1F70186A197A10E940A27892BEB
:1038E000E9F4F70120A531A58091710790E08217D6
:1038F0009307A4F02817390739F440E150E061E656
:1039000077E0C7010E941A27F701E2A4F3A4D9CFF8
:10391000892B21F01092770710927607809171071A
:103920008F5F809371071092720781E01A3209F05D
:1039300080E08093600783CD109272071092710728
:1039400010925F07A09270071092600710927307A1
:1039500076CDEE3040F481E08E0F80937207F0E078
:10396000EF59F84F108380916007811168CD8091E5
:103970005F07182710935F0762CD0E94B51660930A
:10398000CD027093CE028093CF029093D00263EA6F
:1039900071E08EEA95E00E94B60E4091CD02509102
:1039A000CE026091CF027091D0022AE08EEA95E0BB
:1039B0000E947D0D8091DC06882309F4B5C021E0CA
:1039C00030E03093CC022093CB026EEA71E08EEAB5
:1039D00095E00E94B60E1092DC066091DF067091B1
:1039E000E0068091E1069091E2060E94AE2428E272
:1039F0003BE64EE65EE40E940D246B017C01609183
:103A0000DD067091DE0680E090E00E94AE249B010E
:103A1000AC01C701B6010E949C232091E306AB01D3
:103A2000BC012111705826E08EEA95E00E94C60D77
:103A300068EB71E08EEA95E00E94B60E1092DC060B
:103A40006091E6067091E7068091E8069091E9069C
:103A50000E94AE2428E23BE64EE65EE40E940D247E
:103A60006B017C016091E4067091E50680E090E0D6
:103A70000E94AE249B01AC01C701B6010E949C23A9
:103A80002091EA06AB01BC012111705826E030E01C
:103A90008EEA95E00E94A20E10921A0760911F070D
:103AA0007091200780912107909122070E94B024F5
:103AB00026E53EE04DEE5FE30E94652520E030E024
:103AC00048EC52E40E940D246B017C0162EC71E031
:103AD0008EEA95E00E94B60E22E030E0B701A60122
:103AE0008EEA95E00E94A20E6EEC71E08EEA95E0FF
:103AF0000E94B60E1092360760913B0770913C070A
:103B000080913D0790913E070E94B02420E030E074
:103B100048EC52E40E940D24AB01BC0122E030E0ED
:103B20008EEA95E00E94A20E8091CB029091CC0289
:103B3000892B31F56DED71E08EEA95E00E94B60EAD
:103B400060EF71E08EEA95E00E94B60E63E072E0ED
:103B50008EEA95E00E94B60E68E172E08EEA95E08A
:103B60000E94B60E61E08DE00E94F2156CE271E0F9
:103B700080E090E00E947B1660E08DE00E94F215EC
:103B80000093880338E63093AA03109289031092B9
:103B9000AB036BE38BE496E00E948F0C80E00E9405
:103BA0006015809187038111FCCF009387030093F8
:103BB00086038FEF80938503109284038DE08093BA
:103BC00083030093620380916203806D809362039C
:103BD00080916103813071F41092610380916203DE
:103BE0008093BB008091BC0083FDF8CF95EC90934F
:103BF000BC0003C0E5EEE093BC00809187038130F8
:103C0000E1F3809184038E3018F49091840301C015
:103C10009EE0A3E6B3E0EAE9F2E080E0891721F054
:103C20002D9121938F5FFACF109299028093980281
:103C30008BE496E00E94460C182F8BE496E00E94DD
:103C4000460C912E812C882999299093CA02809341
:103C5000C9028BE496E00E94460C182F8BE496E094
:103C60000E94460C712E612C862997299093C802D8
:103C70008093C7028BE496E00E94460C182F8BE4D9
:103C800096E00E94460CE5961FAFE597E4961FAEBE
:103C9000E497E5962EAD3FADE597822B932B90935D
:103CA000C6028093C5028BE496E00E94460C182F52
:103CB0008BE496E00E94460CE7961FAFE797E696E6
:103CC0001FAEE697E796EEADFFADE7978E2B9F2BE5
:103CD0009093C4028093C3028BE496E00E94460C4A
:103CE000182F8BE496E00E94460CE9961FAFE997E7
:103CF000E8961FAEE897E9962EAD3FADE997822B87
:103D0000932B9093C2028093C1028BE496E00E94B1
:103D1000460C182F8BE496E00E94460C312E212C85
:103D2000822993299093C0028093BF028BE496E08E
:103D30000E94460C182F8BE496E00E94460C512EF0
:103D4000412C842995299093BE028093BD0260E3A3
:103D500072E08EEA95E00E94B60E6091C902709101
:103D6000CA028EEA95E00E94BC156AE372E08EEA10
:103D700095E00E94B60E6091C7027091C8028EEA6B
:103D800095E00E94BC1564E472E08EEA95E00E9422
:103D9000B60E6091C5027091C6028EEA95E00E944F
:103DA000BC156EE472E08EEA95E00E94B60E60915A
:103DB000C3027091C402072E000C880B990B0E945D
:103DC000B02420E030E04AEA53E40E940D2428EBBE
:103DD0003EE142E152E40E949C23AB01BC0122E09F
:103DE0008EEA95E00E94C60D69E572E08EEA95E0E4
:103DF0000E94B60E6091C1027091C2028EEA95E0F7
:103E00000E94BC1563E672E08EEA95E00E94B60E51
:103E10006091BF027091C0028EEA95E00E94BC15CD
:103E20006DE672E08EEA95E00E94B60E6091BD02EA
:103E30007091BE028EEA95E00E94BC1567E772E0C1
:103E40008EEA95E00E94680D6AE070E080E090E004
:103E50000E947B1663EA71E081EA96E00E94B60E4A
:103E60004091CD025091CE026091CF027091D0026C
:103E70002AE081EA96E00E947D0D8091DC0688238D
:103E800009F4B3C081E090E09093CC028093CB0220
:103E90006EEA71E081EA96E00E94B60E1092DC06AE
:103EA0006091DF067091E0068091E1069091E20654
:103EB0000E94AE2428E23BE64EE65EE40E940D241A
:103EC0006B017C016091DD067091DE0680E090E080
:103ED0000E94AE249B01AC01C701B6010E949C2345
:103EE0002091E306AB01BC012111705826E081EA64
:103EF00096E00E94C60D68EB71E081EA96E00E94B0
:103F0000B60E1092DC066091E6067091E70680918D
:103F1000E8069091E9060E94AE2428E23BE64EE6D0
:103F20005EE40E940D246B017C016091E4067091B7
:103F3000E50680E090E00E94AE249B01AC01C70141
:103F4000B6010E949C232091EA06AB01BC0121111D
:103F5000705826E030E081EA96E00E94A20E62EC02
:103F600071E081EA96E00E94B60E10921A07609105
:103F70001F077091200780912107909122070E94CE
:103F8000B02426E53EE04DEE5FE30E94652520E08B
:103F900030E048EC52E40E940D24AB01BC0122E069
:103FA00030E081EA96E00E94A20E6EEC71E081EAB8
:103FB00096E00E94B60E1092360760913B07709112
:103FC0003C0780913D0790913E070E94B02420E07D
:103FD00030E048EC52E40E940D24AB01BC0122E029
:103FE00030E081EA96E00E94A20E8091CB0290918F
:103FF000CC02892BC1F46DED71E081EA96E00E945C
:10400000B60E60EF71E081EA96E00E94B60E63E0C2
:1040100072E081EA96E00E94B60E68E172E081EA01
:1040200096E00E94B60E60E372E081EA96E00E949C
:10403000B60E6091C9027091CA0281EA96E00E94B0
:10404000BC156AE372E081EA96E00E94B60E6091C8
:10405000C7027091C80281EA96E00E94BC1564E430
:1040600072E081EA96E00E94B60E6091C5027091FE
:10407000C60281EA96E00E94BC156EE472E081EA15
:1040800096E00E94B60E6091C3027091C402072EA2
:10409000000C880B990B0E94B02420E030E04AEA23
:1040A00053E40E940D2428EB3EE142E152E40E94D9
:1040B0009C23AB01BC0122E081EA96E00E94C60D80
:1040C00069E572E081EA96E00E94B60E6091C10255
:1040D0007091C20281EA96E00E94BC1563E672E02C
:1040E00081EA96E00E94B60E6091BF027091C00214
:1040F00081EA96E00E94BC156DE672E081EA96E0E6
:104100000E94B60E6091BD027091BE0281EA96E0F7
:104110000E94BC1567E772E081EA96E00E94680D94
:104120000E94F80B8CC9809187068111E0C88091AC
:104130007B06803109F582E080938706109299060C
:1041400010929A0610929B0610929C0680917C0613
:1041500090917D06A0E0B0E025E0880F991FAA1F8E
:10416000BB1F2A95D1F78093950690939606A0934E
:104170009706B09398061FC0803209F0B8C883E054
:104180008093870640917E0650917F06609180065D
:10419000709181064093990650939A0660939B060E
:1041A00070939C0625E936E084E696E00E94C913E8
:1041B000882309F49CC884E696E090939E06809339
:1041C0009D0681E0809386061092880610928906EB
:1041D00010928A0610928B0610928C0610928D0611
:1041E00010928E0610928F061092900610929106F1
:1041F00010929206109293061092940678C88EE65A
:1042000091E09093BD068093BC06809188029091C6
:1042100089028C5B964071F4E091CF06F091D00654
:1042200090818091D10680958923808310928902A4
:104230001092880208951092B1051092B00588EE90
:1042400093E0A0E0B0E08093B2059093B305A09313
:10425000B405B093B5052EE031E03093AF0520935F
:10426000AE0525EC30E03093BB052093BA0524EC75
:1042700030E03093BD052093BC0520EC30E0309356
:10428000BF052093BE0521EC30E03093C10520939B
:10429000C00522EC30E03093C3052093C20526EC24
:1042A00030E03093C5052093C4051092C7051092E5
:1042B000C8051092C9051092CA0510924E061092B8
:1042C0004D0680934F0690935006A0935106B093ED
:1042D000520620E231E030934C0620934B061092B8
:1042E0005C0610925D06109260061092620642E033
:1042F00050E060E070E04093640650936506609380
:1043000066067093670610927B06109285061092DF
:10431000840622E331E030938306209382061092D4
:1043200087061092DB061092DC061092DE061092D1
:10433000DD061092DF061092E0061092E106109260
:10434000E2061092E3061092E5061092E40610923F
:10435000E6061092E7061092E8061092E90610921F
:10436000EA061092EC061092EB061092ED061092FF
:10437000EE061092EF061092F0061092F1061092DF
:10438000F3061092F2061092F4061092F5061092BF
:10439000F6061092F7061092F8061092FD0610929B
:1043A000FE061092FF06109200071092010710926D
:1043B000020710920B0710920C0710920D07109233
:1043C0000E0710920F071092100710921907109203
:1043D0001A0710921F0710922007109221071092BF
:1043E0002207109227071092280710922D0710928B
:1043F0002E0710922F071092300710923507109257
:10440000360710923B0710923C0710923D0710921E
:104410003E071092430710924407109249071092EA
:104420004A0710924B0710924C07109251071092B6
:10443000520710925707109258071092590710927E
:104440005A0710925F071092600722E020937007CE
:1044500010927107109272071092730710927507ED
:1044600010927407109277071092760710927807CF
:104470001092790710927A0710927B0710927C07AE
:1044800010927D0710927E0710927F07109280078E
:10449000109281071092820710928307109284076E
:1044A0001092850710928607109287071092610775
:1044B0001092BF061092BE068093C0069093C1066C
:1044C000A093C206B093C3068EE691E09093BD061A
:1044D0008093BC061092D3061092D2061092D50695
:1044E0001092D4061092D7061092D6061092D906D2
:1044F0001092D8066091DA066E7F6D7F6093DA06BF
:104500006695617081E0682783E00E94F21561E0A2
:1045100083E00E943F16E3E1F1E0E491E093CC06F2
:10452000EFEFF0E0E491F0E0EE0FFF1FEE50FF4FF1
:10453000859194919093CE068093CD0660E082E0C1
:104540000E943F168091DA0681FD04C061E082E09E
:104550000E94F21582E08093C806E2E1F1E0E49166
:10456000E093C906EEEFF0E0E491F0E0EE0FFF1FFC
:10457000E851FF4F859194919093CB068093CA06A2
:104580001092A4061092A30688EE93E0A0E0B0E09B
:104590008093A5069093A606A093A706B093A806BD
:1045A0008EE391E09093A2068093A1061092BB0641
:1045B0001092BA061092AD0608951F93FC01992738
:1045C0008827BC01E89411911032E9F3193010F0FA
:1045D0001E30C8F31B3251F01D3249F4689406C0F6
:1045E0000E940423610F711D811D911D11911053B3
:1045F0001A30B0F33EF490958095709561957F4F99
:104600008F4F9F4F1F910895592F482F372F262FD7
:10461000660F771F881F991F660F771F881F991FC6
:10462000620F731F841F951F660F771F881F991FC6
:104630000895DB018F939F930E946523BF91AF91F3
:10464000A29F800D911DA39F900DB29F900D1124EC
:10465000089597FB072E16F4009407D077FD09D034
:104660000E94782307FC05D03EF4909581959F4FDA
:104670000895709561957F4F0895A1E21A2EAA1BA7
:10468000BB1BFD010DC0AA1FBB1FEE1FFF1FA21702
:10469000B307E407F50720F0A21BB30BE40BF50BFF
:1046A000661F771F881F991F1A9469F76095709588
:1046B000809590959B01AC01BD01CF010895EE0F4F
:1046C000FF1F0590F491E02D09940E948C23A59F73
:1046D000900DB49F900DA49F800D911D11240895FD
:1046E000B7FF0C9465230E946523821B930B0895EA
:1046F000AA1BBB1B51E107C0AA1FBB1FA617B70708
:1047000010F0A61BB70B881F991F5A95A9F7809523
:104710009095BC01CD010895A29FB001B39FC00147
:10472000A39F700D811D1124911DB29F700D811DDD
:104730001124911D08955058BB27AA270E94B32326
:104740000C9426250E94182538F00E941F2520F081
:1047500039F49F3F19F426F40C9415250EF4E095D6
:10476000E7FB0C940F25E92F0E94372558F3BA1761
:10477000620773078407950720F079F4A6F50C9477
:1047800059250EF4E0950B2EBA2FA02D0B01B9017F
:1047900090010C01CA01A0011124FF27591B99F0B7
:1047A000593F50F4503E68F11A16F040A22F232FC3
:1047B000342F4427585FF3CF469537952795A79513
:1047C000F0405395C9F77EF41F16BA0B620B730BBA
:1047D000840BBAF09150A1F0FF0FBB1F661F771F2B
:1047E000881FC2F70EC0BA0F621F731F841F48F4E0
:1047F000879577956795B795F7959E3F08F0B0CF69
:104800009395880F08F09927EE0F9795879508954F
:104810000E94EB2408F481E008950E9421240C9466
:1048200026250E941F2558F00E94182540F029F4E3
:104830005F3F29F00C940F2551110C945A250C94CC
:1048400015250E94372568F39923B1F3552391F379
:10485000951B550BBB27AA2762177307840738F0EF
:104860009F5F5F4F220F331F441FAA1FA9F335D04C
:104870000E2E3AF0E0E832D091505040E695001C00
:10488000CAF72BD0FE2F29D0660F771F881FBB1FBA
:10489000261737074807AB07B0E809F0BB0B802D98
:1048A000BF01FF2793585F4F3AF09E3F510578F0C4
:1048B0000C940F250C945A255F3FE4F3983ED4F3F3
:1048C000869577956795B795F7959F5FC9F7880F98
:1048D000911D9695879597F90895E1E0660F771FEA
:1048E000881FBB1F621773078407BA0720F0621B7B
:1048F000730B840BBA0BEE1F88F7E09508950E94A6
:104900003F2588F09F5798F0B92F9927B751B0F0FD
:10491000E1F0660F771F881F991F1AF0BA95C9F743
:1049200014C0B13091F00E945925B1E008950C9463
:104930005925672F782F8827B85F39F0B93FCCF316
:10494000869577956795B395D9F73EF490958095C0
:10495000709561957F4F8F4F9F4F0895E89409C0E0
:1049600097FB3EF490958095709561957F4F8F4FA2
:104970009F4F9923A9F0F92F96E9BB279395F695B8
:10498000879577956795B795F111F8CFFAF4BB0F36
:1049900011F460FF1BC06F5F7F4F8F4F9F4F16C09A
:1049A000882311F096E911C0772321F09EE8872F24
:1049B000762F05C0662371F096E8862F70E060E0E0
:1049C0002AF09A95660F771F881FDAF7880F969559
:1049D000879597F90895990F0008550FAA0BE0E8FD
:1049E000FEEF16161706E807F907C0F012161306B1
:1049F000E407F50798F0621B730B840B950B39F4F1
:104A00000A2661F0232B242B252B21F408950A2656
:104A100009F4A140A6958FEF811D811D089597F996
:104A20009F6780E870E060E008959FEF80EC089554
:104A300000240A941616170618060906089500247D
:104A40000A9412161306140605060895092E0394F7
:104A5000000C11F4882352F0BB0F40F4BF2B11F46B
:104A600060FF04C06F5F7F4F8F4F9F4F089557FDCA
:104A70009058440F551F59F05F3F71F04795880FCC
:104A800097FB991F61F09F3F79F087950895121663
:104A900013061406551FF2CF4695F1DF08C016160F
:104AA00017061806991FF1CF8695710561050894C0
:104AB0000895E894BB2766277727CB0197F90895D7
:104AC0000E94EB2408F48FEF08950E9478250C943F
:104AD00026250E94182538F00E941F2520F09523D6
:104AE00011F00C940F250C94152511240C945A25C3
:104AF0000E94372570F3959FC1F3950F50E0551F25
:104B0000629FF001729FBB27F00DB11D639FAA2722
:104B1000F00DB11DAA1F649F6627B00DA11D661F71
:104B2000829F2227B00DA11D621F739FB00DA11D92
:104B3000621F839FA00D611D221F749F3327A00D4C
:104B4000611D231F849F600D211D822F762F6A2FE8
:104B500011249F5750409AF0F1F088234AF0EE0F4D
:104B6000FF1FBB1F661F771F881F91505040A9F77A
:104B70009E3F510580F00C940F250C945A255F3F01
:104B8000E4F3983ED4F3869577956795B795F795B6
:104B9000E7959F5FC1F7FE2B880F911D969587952E
:104BA00097F908950E94EB24880B990B08950F93B1
:104BB0001F93CF93DF938230910510F482E090E051
:104BC000E0918B07F0918C0720E030E0A0E0B0E0AE
:104BD000309719F14081518102811381481759079B
:104BE000C8F08417950769F4109731F012960C936A
:104BF000129713961C9327C000938B0710938C0772
:104C000022C02115310519F04217530718F49A01F3
:104C1000BD01EF01DF01F801DBCF21153105F9F00E
:104C2000281B390B2430310580F48A819B81611562
:104C3000710521F0FB019383828304C090938C075C
:104C400080938B07FE01329644C0FE01E20FF31FF2
:104C50008193919322503109398328833AC020915E
:104C6000890730918A07232B41F420910601309166
:104C7000070130938A07209389072091040130911E
:104C800005012115310541F42DB73EB740910801CA
:104C900050910901241B350BE0918907F0918A0797
:104CA000E217F307A0F42E1B3F0B2817390778F003
:104CB000AC014E5F5F4F2417350748F04E0F5F1F62
:104CC00050938A07409389078193919302C0E0E053
:104CD000F0E0CF01DF91CF911F910F910895CF9315
:104CE000DF93009709F481C0FC013297138212828E
:104CF000A0918B07B0918C07109781F420813181AE
:104D0000820F931F2091890730918A07281739074E
:104D100051F5F0938A07E093890767C0ED0120E021
:104D200030E0CE17DF0740F44A815B819E014115D8
:104D30005105F1F0EA01F5CFD383C283408151815F
:104D4000840F951FC817D90759F488819981840F5A
:104D5000951F0296918380838A819B8193838283AE
:104D60002115310529F4F0938C07E0938B073DC0A2
:104D7000E901FB83EA8349915991C40FD51FEC17D0
:104D8000FD0761F480819181840F951F0296E901EE
:104D900099838883828193819B838A83E0E0F0E01A
:104DA00012968D919C911397009719F0FD01DC01EB
:104DB000F7CF8D919C9111979D012E5F3F4F820FF0
:104DC000931F2091890730918A072817390769F4C2
:104DD000309729F410928C0710928B0702C013822F
:104DE0001282B0938A07A0938907DF91CF9108952B
:104DF00081E090E0F8940C942927FB01DC0104C0C9
:104E00008D910190801921F441505040C8F7881BC2
:104E1000990B0895FB01DC018D910190801901101F
:104E2000D9F3990B0895FB01DC0101900D9200204C
:104E3000E1F70895FB01DC014150504048F001903A
:104E40000D920020C9F701C01D9241505040E0F77B
:104E5000089510E0C3E9D0E004C0FE010E945F2382
:0C4E60002196C439D107C9F7F894FFCFA0
:104E6C00FFFFFFFF00008D07200000000000890BF2
:104E7C00F60A200BD60B510B2F0B430B0000000036
:104E8C008F0C620CF600360C5A0C460C370C0000DA
:104E9C000000690AF60AF600F50000000000DF00C9
:104EAC007A0AF6003201BE000E0818080000000055
:104EBC005F0DF60AF600F5005F0D5F0D5F0D00004B
:104ECC0000005F0DF60AF600F50000000000D60C9D
:104EDC00F60AF600360C260D3E0DBE0C44617461CC
:104EEC004C6F676765722E747874004750524D434F
:104EFC0000474E524D4300475047474100474E47ED
:104F0C00474100207C2054696D65203D2000207CA9
:104F1C00204C4154203D2000207C204C4E47203D0D
:104F2C002000207C205370656564203D2000207C8F
:104F3C0020416C746974756465203D2000207C20D0
:104F4C004C4154203D204E6F205369676E616C00BC
:104F5C00207C204C4E47203D204E6F205369676EBD
:104F6C00616C00207C205370656564203D204E6F81
:104F7C00205369676E616C00207C20416C746974ED
:104F8C00756465203D204E6F205369676E616C001F
:104F9C00207C20416358203D2000207C2041635917
:104FAC00203D2000207C2041635A203D2000207CA5
:104FBC002054656D70203D2000207C2047795820BE
:104FCC003D2000207C20477959203D2000207C206A
:104FDC0047795A203D20000D0A006E616E00696E03
:064FEC0066006F7666000E
:00000001FF
